:1000000012C02CC02BC02AC029C028C028C026C0BE
:1000100025C024C023C08FC1BBC120C01FC01EC0CB
:100020001DC01CC01BC011241FBECFE5D4E0DEBF25
:10003000CDBF10E0A0E6B0E0E8E1F5E002C0059039
:100040000D92A037B107D9F710E0A0E7B0E001C0EA
:100050001D92A03EB107E1F778D05CC2D1CF1F92CC
:100060000F920FB60F9211248F939F93809172007D
:100070008F5F8093720090916F00891710F4AA9A95
:1000800001C0AA9890916D0080917200891710F4B8
:10009000AC9A01C0AC9890916E0080917200891763
:1000A00010F4A89A01C0A8989F918F910F900FBE4D
:1000B0000F901F9018958EB58B608EBD1DBC1CBC1B
:1000C00087E090E09BBD8ABD89B7806189BF0895B4
:1000D0008091B800833539F58091B900853429F5D0
:1000E0008091BA00843519F58091BC00823509F5FC
:1000F0008091C1008734F9F48091C6008234E9F41C
:100100008091CB008634D9F48091D1008534C9F434
:100110008091D2008E34B9F49091D30081E0943470
:1001200099F480E0089581E0089581E0089581E0E8
:10013000089581E0089581E0089581E0089581E0C7
:10014000089581E0089581E00895CF93DF93CDB7BE
:10015000DEB728970FB6F894DEBF0FBECDBF84B3CD
:10016000856184BB85B38A7E85BB85B38A6285BB86
:1001700084B3857D84BB8FEF9FEBA1E281509040DB
:10018000A040E1F700C0000085E090E027D193DFB8
:10019000789408EB10E00F2EF6E6CF2EF0E0DF2E7D
:1001A000F02D0F2EFDEBEF2EF0E0FF2EF02D57017E
:1001B0000894A11CB11C88249924689481F88E0CA1
:1001C0009F1C0F2EF5E06F2E7724F02D6E0C7F1CF8
:1001D0000F2EF6E04F2E5524F02D4E0C5F1C0F2EE7
:1001E000F7E02F2E3324F02D2E0C3F1CD7011A964A
:1001F000BA83A983F7013B96FC83EB83C7010C9676
:100200009E838D834AD18C319105E4F3A0E0B0E068
:10021000B887AF83F7D0EF81F885E00FF11F8083B7
:10022000EF81F8853196F887EF83EC31F10591F78E
:100230004FDF882309F07BC0D7019C91F5014081F5
:10024000D4018C91382F305D24E6929F802D1124AB
:10025000380F842F880F982F990F990F890F830FCC
:1002600080936D00F3019081D2014C91F101808166
:10027000382F305D929F802D1124380F842F880FE6
:10028000982F990F990F890F830F80936F00A98181
:10029000BA819C91EB81FC814081AD81BE818C91C2
:1002A000382F305D929F802D1124380F842F880FB6
:1002B000982F990F990F890F830F80936E00F70184
:1002C00080894785E189D7015296FC9190E024E628
:1002D00030E0829FB001839F700D929F700D1124BA
:1002E000842F90E0C09728EE33E0829FA001839F87
:1002F000500D929F500D1124460F571F8E2F90E0E6
:10030000880F991F9C01220F331F220F331F820F6A
:10031000931F840F951F8F0F911D805D94419093C3
:1003200071008093700080E690E098D002C0C60112
:1003300095D0BFD067CF1F920F920FB60F921124A6
:100340002F933F938F939F93EF93FF933BB12CB1E8
:10035000809175008F5F8F7190917400891751F0B3
:10036000932F987180937500E8E7F0E0E80FF11D96
:10037000208301C092E090937300FF91EF919F91D1
:100380008F913F912F910F900FBE0F901F90189556
:100390001F920F920FB60F9211248F939F93EF939A
:1003A000FF939091770080917600981769F0809183
:1003B00076008F5F8F7180937600E8E9F0E0E80FB8
:1003C000F11D80818CB901C05598FF91EF919F91EB
:1003D0008F910F900FBE0F901F901895109277007D
:1003E00010927600109275001092740099231CF4FC
:1003F00022E02BB99F7790BD89B988E98AB986E850
:1004000080BD08959091750080917400981791F0C7
:10041000809174008F5F8F7180937400E8E7F0E043
:10042000E80FF11D208130917300932F80E0820F3F
:10043000911D089580E091E00895209177002F5F4D
:100440002F71909176002917E1F3E8E9F0E0E20FCF
:10045000F11D808320937700559A0895CF93DF9301
:10046000EC018881882329F02196E7DF8991882390
:10047000E1F7DF91CF910895CF93DF93EC01FC0179
:100480008491882339F02196D8DFFE01219684914A
:100490008823D1F7DF91CF91089580917500209145
:1004A000740090E04F96821B91096FE170E00BD0D1
:1004B00008955F9B03C08CB15F99FDCF10927400CB
:1004C00010927500089597FB092E07260AD077FD34
:1004D00004D00CD006D000201AF4709561957F4F9F
:1004E0000895F6F7909581959F4F0895AA1BBB1B21
:1004F00051E107C0AA1FBB1FA617B70710F0A61B24
:10050000B70B881F991F5A95A9F780959095BC0144
:08051000CD010895F894FFCF1E
:1005180041434B0D0A004E41434B0D0A00FFFFFFBC
:00000001FF
