:1000000012C02CC02BC02AC029C028C028C026C0BE
:1000100025C024C023C0EAC016C120C01FC01EC016
:100020001DC01CC01BC011241FBECFE5D4E0DEBF25
:10003000CDBF10E0A0E6B0E0EEECF3E002C005902A
:100040000D92A036B107D9F710E0A0E6B0E001C0EC
:100050001D92A23DB107E1F73BD0B7C1D1CF1F92AE
:100060000F920FB60F9211248F939F93809160008F
:100070008F5F809360009091B000891710F4AC9A64
:1000800001C0AC989091B20080916000891710F483
:10009000AA9A01C0AA989091B30080916000891734
:1000A00010F4A89A01C0A8989F918F910F900FBE4D
:1000B0000F901F9018958EB58B608EBD1DBC1CBC1B
:1000C00089E090E09BBD8ABD89B7806189BF0895B2
:1000D00084B3856184BB85B38A7E85BB85B38A6220
:1000E00085BB84B3857D84BB8FEF9FEBA1E28150FC
:1000F0009040A040E1F700C0000085E090E0C9D04A
:10010000DADF78941092B1008091B0008F5F809315
:10011000B000A9E9B5E11197F1F700C08091B100F5
:100120008F5F8093B1008F3F79F71092B10080917B
:10013000B00081508093B00089E995E10197F1F713
:1001400000C08091B1008F5F8093B1008F3F79F73D
:100150001092B1008091B3008F5F8093B300A9E942
:10016000B5E11197F1F700C08091B1008F5F8093E6
:10017000B1008F3F79F71092B1008091B3008150A8
:100180008093B30089E995E10197F1F700C0809170
:10019000B1008F5F8093B1008F3F79F71092B1006B
:1001A0008091B2008F5F8093B200A9E9B5E1119709
:1001B000F1F700C08091B1008F5F8093B1008F3F55
:1001C00079F71092B1008091B20081508093B20013
:1001D00089E995E10197F1F700C08091B1008F5F47
:1001E0008093B1008F3F09F48DCFEDCF1F920F9216
:1001F0000FB60F9211242F933F938F939F93EF93FA
:10020000FF933BB12CB1809163008F5F8F71909110
:100210006200891751F0932F987180936300E6E68E
:10022000F0E0E80FF11D208301C092E0909361009F
:10023000FF91EF919F918F913F912F910F900FBE62
:100240000F901F9018951F920F920FB60F921124C6
:100250008F939F93EF93FF9390916500809164003B
:10026000981769F0809164008F5F8F7180936400AC
:10027000E6E8F0E0E80FF11D80818CB901C05598E7
:10028000FF91EF919F918F910F900FBE0F901F9054
:1002900018951092650010926400109263001092FD
:1002A000620099231CF422E02BB99F7790BD89B995
:1002B00088E98AB986E880BD0895909163008091AD
:1002C0006200981791F0809162008F5F8F71809328
:1002D0006200E6E6F0E0E80FF11D20813091610058
:1002E000932F80E0820F911D089580E091E00895A2
:1002F000209165002F5F2F71909164002917E1F321
:10030000E6E8F0E0E20FF11D808320936500559A46
:100310000895CF93DF93EC018881882329F02196FB
:10032000E7DF89918823E1F7DF91CF910895CF939B
:10033000DF93EC01FC018491882339F02196D8DF0A
:10034000FE01219684918823D1F7DF91CF91089502
:10035000809163002091620090E04F96821B91098A
:100360006FE170E00BD008955F9B03C08CB15F9983
:10037000FDCF1092620010926300089597FB092E42
:1003800007260AD077FD04D00CD006D000201AF43E
:10039000709561957F4F0895F6F7909581959F4FE1
:1003A0000895AA1BBB1B51E107C0AA1FBB1FA617BC
:1003B000B70710F0A61BB70B881F991F5A95A9F70E
:0E03C00080959095BC01CD010895F894FFCF73
:00000001FF
