S01900005247425F436F6E74726F6C6C65724174382E73726563C0
S113000012C02CC02BC02AC029C028C0DEC026C004
S113001025C024C023C053C37FC320C01FC01EC03B
S11300201DC01CC01BC011241FBECFE5D4E0DEBF21
S1130030CDBF10E0A0E6B0E0E8EBF8E002C0059028
S11300400D92A237B107D9F711E0A2E7B0E001C0E1
S11300501D92AC32B107E1F70CD22CC4D1CF809100
S11300607300813041F49FEF90936D0010926F0004
S113007010926E0014C0823041F410926D008FEF24
S113008080936F0010926E000EC0833041F4109282
S11300906D0010926F008FEF80936E0002C083306A
S11300A010F010927300809173008F5F809373003F
S11300B0089580916D008F3F49F0809170008130E8
S11300C029F480916D008F5F80936D0080916D00A5
S11300D08F3F69F480916F008F3F49F080917000E9
S11300E0813029F480916F008F5F80936F0080913D
S11300F06D008F3F89F480916F008F3F69F4809188
S11301006E008F3F49F080917000813029F4809116
S11301106E008F5F80936E0080916D008F3F71F44D
S113012080916F008F3F51F480916E008F3F31F4C6
S113013080917000813011F41092700080916D00F4
S1130140882349F080917000882329F480916D0000
S1130150815080936D0080916D00882369F48091B3
S11301606F00882349F080917000882329F48091DE
S11301706F00815080936F0080916D00882389F413
S113018080916F00882369F480916E00882349F080
S113019080917000882329F480916E0081508093AF
S11301A06E0080916D00882379F480916F0088231C
S11301B059F480916E00882339F48091700088236B
S11301C019F481E08093700008951F920F920FB686
S11301D00F9211248F939F93809174008130E1F4E6
S11301E090916F0080917200891710F4AA9A01C04F
S11301F0AA9890916D0080917200891710F4AC9ABE
S113020001C0AC9890916E0080917200891710F42F
S1130210A89A05C0A89803C085B38A7E85BB80913F
S113022072008F5F809372009F918F910F900FBE29
S11302300F901F90189580917700909178002091ED
S1130240790030917A008217930724F481E0809337
S1130250740011C0220F331F821793071CF41092ED
S1130260740009C010927800109277008091760093
S1130270813009F4F4DE8091770090917800019642
S113028090937800809377000895209177003091BF
S113029078008091790090917A00821793070CF08E
S11302A082C080917E00882381F580917600882326
S11302B061F580916E00882329F080916E00815051
S11302C080936E0080916F00882329F080916F00E5
S11302D0815080936F0080916D00882329F0809174
S11302E06D00815080936D0030916E0080916F009D
S11302F020916D0090E0830F911D820F911D009756
S113030021F481E080937E0005C080917E008130DD
S113031009F040C0809176008823E1F590916E0049
S113032080917C00981728F480916E008F5F8093F1
S11303306E0090916F0080917D00981728F4809151
S11303406F008F5F80936F0090916D0080917B00B0
S1130350981728F480916D008F5F80936D006091F1
S11303606E0020916F0090916D0050917C008091FF
S11303707D0040917B0030E0260F311D290F311D97
S113038090E0850F911D840F911D2817390711F4F2
S113039010927E001092780010927700809176007F
S11303A0813009F486DE809177009091780001967F
S11303B0909378008093770008958EB58B608EBDFE
S11303C01DBC1CBC87E090E09BBD8ABD89B78061E1
S11303D089BF089580910401833599F580910501C1
S11303E0853489F580910601843579F58091080179
S11303F0843569F580910B01823559F5809110019E
S1130400873449F580911501823439F580911A01B8
S1130410863429F5809120018D3419F580912301CA
S1130420873509F5809126018534F9F480912701F7
S11304308E34E9F49091280181E09434C9F480E089
S1130440089581E0089581E0089581E0089581E0B0
S1130450089581E0089581E0089581E0089581E0A0
S1130460089581E0089581E0089581E0089581E090
S11304700895CF93DF93CDB7DEB728970FB6F894DE
S1130480DEBF0FBECDBF84B3856184BB85B38A7ED6
S113049085BB85B38A6285BB84B3857D84BB87E4D1
S11304A090E060D18ADF7894C8D104E011E00F2E87
S11304B0F6E6CF2EF0E0DF2EF02D0F2EF9E0EF2E32
S11304C0F1E0FF2EF02D0F2EF3E0AF2EBB24F02D24
S11304D0AE0CBF1C88249924689482F88E0C9F1C4F
S11304E00F2EF5E06F2E7724F02D6E0C7F1C442424
S11304F05524689443F84E0C5F1C0F2EF9E02F2E00
S11305003324F02D2E0C3F1CC7010A969A8389834D
S1130510D7011D96BC83AB83F7013E96FE83ED8322
S113052080D1853291050CF4B3C080E090E09887C7
S11305308F832CD1EF81F885E00FF11F80838081B8
S113054040D1AF81B8851196B887AF83A532B10584
S113055081F740DF882309F098C0F894F70180817F
S1130560805380937400D5019C91F4013081D301B0
S11305702C91205D84E6989F902D1124422F490FE1
S1130580932F990F292F220F220F920F940F9093DC
S11305907B0090936D00F2012081D1013C91E981AF
S11305A0FA819081905D289F202D1124492F420FBC
S11305B0932F990F292F220F220F920F940F9093AC
S11305C07D0090936F00AB81BC812C91ED81FE8105
S11305D03081D7011F969C911F97905D289F802D95
S11305E01124980F330F832F880F880F380F930F20
S11305F090937C0090936E0053968C9153975296EF
S11306004C9152975496EC9154975596FC9155976A
S113061090E024E630E0829FB001839F700D929FAA
S1130620700D1124842F90E0C09728EE33E0829F50
S1130630A001839F500D929F500D1124460F571F08
S11306408E2F90E0880F991F9C01220F331F220FD9
S1130650331F820F931F840F951F8F0F911D805D91
S1130660944190937A008093790058968C9158978E
S11306708053809376005B968C91805380937500B1
S1130680789480E690E0AED002C0C601ABD0D5D05D
S11306908091720064E1DBD0992309F041CF80910D
S11306A0790090917A00181619060CF039CF8091D0
S11306B07500813011F0BFDD33CFE7DD31CF1F92FC
S11306C00F920FB60F9211242F933F938F939F9302
S11306D0EF93FF933BB12CB1809181008F5F8F73B7
S11306E090918000891751F0932F98718093810025
S11306F0E4E8F0E0E80FF11D208301C092E090935C
S11307007F00FF91EF919F918F913F912F910F90D7
S11307100FBE0F901F9018951F920F920FB60F9255
S113072011248F939F93EF93FF9390918300809173
S11307308200981769F0809182008F5F8F73809395
S11307408200E4ECF0E0E80FF11D80818CB901C077
S11307505598FF91EF919F918F910F900FBE0F903D
S11307601F901895109283001092820010928100BD
S11307701092800099231CF422E02BB99F7790BD3E
S113078089B988E98AB986E880BD08959091810085
S113079080918000981791F0809180008F5F8F7313
S11307A080938000E4E8F0E0E80FF11D20813091AF
S11307B07F00932F80E0820F911D089580E091E0E7
S11307C00895209183002F5F2F7390918200291741
S11307D0E1F3E4ECF0E0E20FF11D80832093830069
S11307E0559A0895CF93DF93EC018881882329F0EB
S11307F02196E7DF89918823E1F7DF91CF9108956E
S1130800CF93DF93EC01FC018491882339F0219686
S1130810D8DFFE01219684918823D1F7DF91CF910F
S11308200895809181002091800090E0CF96821BF2
S113083091096FE370E017D008955F9B03C08CB1FA
S11308405F99FDCF10928000109281000895991B4A
S113085079E004C0991F961708F0961B881F7A95B3
S1130860C9F78095089597FB092E07260AD077FDCE
S113087004D00CD006D000201AF4709561957F4FF7
S11308800895F6F7909581959F4F0895AA1BBB1B79
S113089051E107C0AA1FBB1FA617B70710F0A61B7C
S11308A0B70B881F991F5A95A9F780959095BC019D
S10B08B0CD010895F894FFCF77
S11308B841434B0D0A004E41434B0D0A00FFFFFF15
S10508C8010029
S9030000FC
