:1000000012C02CC02BC02AC029C028C055C026C091
:1000100025C024C023C025C251C220C01FC01EC09D
:100020001DC01CC01BC011241FBECFE5D4E0DEBF25
:10003000CDBF10E0A0E6B0E0ECE5F6E002C0059030
:100040000D92A037B107D9F711E0A0E7B0E001C0E9
:100050001D92A532B107E1F7F6D0FEC2D1CF809153
:100060007100813039F48FEF80936D0010926F0032
:1000700010926E0080917100823039F410926D0000
:100080008FEF80936F0010926E008091710083302B
:1000900039F410926D0010926F008FEF80936E0014
:1000A00080917100833010F0109271008091710086
:1000B0008F5F8093710008951F920F920FB60F9279
:1000C00011248F939F93809172008130F1F490916D
:1000D0006F0080917000891710F4AA9A01C0AA9845
:1000E00090916D0080917000891710F4AC9A01C056
:1000F000AC9890916E0080917000891710F4A89AC6
:1001000001C0A8988091700003C085B38A7E85BB2A
:10011000809170008F5F809370009F918F910F90FE
:100120000FBE0F901F9018958091760090917700E8
:10013000181619068CF52091740030917500809185
:100140007600909177002817390724F481E0809396
:10015000720019C020917600309177008091740070
:1001600090917500220F331F821793071CF4109291
:10017000720009C010927500109274008091730093
:10018000813009F46CDF80917400909175000196C4
:10019000909375008093740008958EB58B608EBD2A
:1001A0001DBC1CBC87E090E09BBD8ABD89B7806107
:1001B00089BF08958091FD00833579F58091FE0017
:1001C000853469F58091FF00843559F580910101EE
:1001D000843549F580910401823539F58091090112
:1001E000873429F580910E01823419F5809113012D
:1001F000863409F5809119018D34F9F480911C0140
:100200008534E9F480911D018E34D9F490911E015A
:1002100081E09434B9F480E0089581E0089581E0AC
:10022000089581E0089581E0089581E0089581E0D6
:10023000089581E0089581E0089581E0089581E0C6
:10024000089581E00895CF93DF93CDB7DEB7289767
:100250000FB6F894DEBF0FBECDBF84B3856184BBFB
:1002600085B38A7E85BB85B38A6285BB84B3857D71
:1002700084BB87E490E048D190DF7894B0D10DEF53
:1002800010E00F2EF6E6CF2EF0E0DF2EF02D0F2E31
:10029000F2E0EF2EF1E0FF2EF02D0F2EF3E0AF2E67
:1002A000BB24F02DAE0CBF1C88249924689482F8DE
:1002B0008E0C9F1C0F2EF5E06F2E7724F02D6E0C08
:1002C0007F1C44245524689443F84E0C5F1C0F2E69
:1002D000F9E02F2E3324F02D2E0C3F1CC7010A9677
:1002E0009A838983D7011D96BC83AB83F7013E9621
:1002F000FE83ED8368D1823291050CF4A9C080E0C1
:1003000090E098878F8314D1EF81F885E00FF11F7B
:100310008083808128D1AF81B8851196B887AF835B
:10032000A232B10581F746DF882309F08EC0F89428
:10033000F7018081805380937200D5012C91F401E4
:100340004081D3019C91392F305D84E6289F902D08
:100350001124390F942F990F292F220F220F920F5A
:10036000930F90936D00F2012081D1014C91E981AE
:10037000FA819081392F305D289F902D1124390FFB
:10038000942F990F292F220F220F920F930F9093E2
:100390006F00AB81BC812C91ED81FE813081D70152
:1003A0001F969C911F97905D289F802D1124292FC7
:1003B000280F832F880F982F990F990F890F820F7D
:1003C00080936E0053968C91539752964C9152970E
:1003D0005496EC9154975596FC91559790E024E6ED
:1003E00030E0829FB001839F700D929F700D1124A9
:1003F000842F90E0C09728EE33E0829FA001839F76
:10040000500D929F500D1124460F571F8E2F90E0D4
:10041000880F991F9C01220F331F220F331F820F59
:10042000931F840F951F8F0F911D805D94419093B2
:1004300077008093760058968C9180538093730058
:10044000789480E690E0A0D002C0C6019DD0C7D0CD
:100450008091700064E1CDD0992309F04BCF64DE28
:1004600049CF1F920F920FB60F9211242F933F93F3
:100470008F939F93EF93FF933BB12CB180917A00C0
:100480008F5F8F7390917900891751F0932F987136
:1004900080937A00EDE7F0E0E80FF11D208301C0C2
:1004A00092E090937800FF91EF919F918F913F910F
:1004B0002F910F900FBE0F901F9018951F920F92C3
:1004C0000FB60F9211248F939F93EF93FF93909108
:1004D0007C0080917B00981769F080917B008F5F92
:1004E0008F7380937B00EDEBF0E0E80FF11D8081CE
:1004F0008CB901C05598FF91EF919F918F910F900A
:100500000FBE0F901F90189510927C0010927B00E8
:1005100010927A001092790099231CF422E02BB9F2
:100520009F7790BD89B988E98AB986E880BD08952A
:1005300090917A0080917900981791F080917900DC
:100540008F5F8F7380937900EDE7F0E0E80FF11D86
:10055000208130917800932F80E0820F911D0895C3
:1005600080E091E0089520917C002F5F2F7390919F
:100570007B002917E1F3EDEBF0E0E20FF11D808342
:1005800020937C00559A0895CF93DF93EC018881E6
:10059000882329F02196E7DF89918823E1F7DF910D
:1005A000CF910895CF93DF93EC01FC0184918823D0
:1005B00039F02196D8DFFE01219684918823D1F766
:1005C000DF91CF91089580917A002091790090E099
:1005D000CF96821B91096FE370E017D008955F9B5F
:1005E00003C08CB15F99FDCF1092790010927A0010
:1005F0000895991B79E004C0991F961708F0961B7F
:10060000881F7A95C9F78095089597FB092E0726CC
:100610000AD077FD04D00CD006D000201AF47095D3
:1006200061957F4F0895F6F7909581959F4F0895B6
:10063000AA1BBB1B51E107C0AA1FBB1FA617B70708
:1006400010F0A61BB70B881F991F5A95A9F7809524
:0C0650009095BC01CD010895F894FFCFF7
:10065C0041434B0D0A004E41434B0D0A00FFFFFF77
:00000001FF
